{
  "contractName": "Lottery",
  "abi": [
    {
      "inputs": [],
      "stateMutability": "nonpayable",
      "type": "constructor"
    },
    {
      "inputs": [
        {
          "internalType": "uint256",
          "name": "",
          "type": "uint256"
        }
      ],
      "name": "players",
      "outputs": [
        {
          "internalType": "address payable",
          "name": "",
          "type": "address"
        }
      ],
      "stateMutability": "view",
      "type": "function",
      "constant": true
    },
    {
      "inputs": [],
      "name": "winner",
      "outputs": [
        {
          "internalType": "address payable",
          "name": "",
          "type": "address"
        }
      ],
      "stateMutability": "view",
      "type": "function",
      "constant": true
    },
    {
      "stateMutability": "payable",
      "type": "receive",
      "payable": true
    },
    {
      "inputs": [],
      "name": "getBalance",
      "outputs": [
        {
          "internalType": "uint256",
          "name": "",
          "type": "uint256"
        }
      ],
      "stateMutability": "view",
      "type": "function",
      "constant": true
    },
    {
      "inputs": [],
      "name": "pickWinner",
      "outputs": [],
      "stateMutability": "nonpayable",
      "type": "function"
    },
    {
      "inputs": [],
      "name": "allplayers",
      "outputs": [
        {
          "internalType": "address payable[]",
          "name": "",
          "type": "address[]"
        }
      ],
      "stateMutability": "view",
      "type": "function",
      "constant": true
    }
  ],
  "bytecode": "0x608060405234801561001057600080fd5b5033600160006101000a81548173ffffffffffffffffffffffffffffffffffffffff021916908373ffffffffffffffffffffffffffffffffffffffff160217905550610b53806100616000396000f3fe60806040526004361061004e5760003560e01c806312065fe0146101075780635d495aea14610132578063c93c1bfb14610149578063dfbf53ae14610174578063f71d96cb1461019f57610102565b3661010257670de0b6b3a7640000341461009d576040517f08c379a0000000000000000000000000000000000000000000000000000000008152600401610094906106cf565b60405180910390fd5b6000339080600181540180825580915050600190039060005260206000200160009091909190916101000a81548173ffffffffffffffffffffffffffffffffffffffff021916908373ffffffffffffffffffffffffffffffffffffffff160217905550005b600080fd5b34801561011357600080fd5b5061011c6101dc565b6040516101299190610708565b60405180910390f35b34801561013e57600080fd5b50610147610274565b005b34801561015557600080fd5b5061015e61049e565b60405161016b9190610813565b60405180910390f35b34801561018057600080fd5b5061018961052c565b6040516101969190610844565b60405180910390f35b3480156101ab57600080fd5b506101c660048036038101906101c19190610890565b610552565b6040516101d39190610844565b60405180910390f35b60003373ffffffffffffffffffffffffffffffffffffffff16600160009054906101000a900473ffffffffffffffffffffffffffffffffffffffff1673ffffffffffffffffffffffffffffffffffffffff161461026e576040517f08c379a000000000000000000000000000000000000000000000000000000000815260040161026590610909565b60405180910390fd5b47905090565b3373ffffffffffffffffffffffffffffffffffffffff163373ffffffffffffffffffffffffffffffffffffffff16146102e2576040517f08c379a00000000000000000000000000000000000000000000000000000000081526004016102d990610975565b60405180910390fd5b6003600080549050101561032b576040517f08c379a0000000000000000000000000000000000000000000000000000000008152600401610322906109e1565b60405180910390fd5b6000610335610591565b905060008080549050826103499190610a30565b90506000818154811061035f5761035e610a61565b5b9060005260206000200160009054906101000a900473ffffffffffffffffffffffffffffffffffffffff16600260006101000a81548173ffffffffffffffffffffffffffffffffffffffff021916908373ffffffffffffffffffffffffffffffffffffffff160217905550600260009054906101000a900473ffffffffffffffffffffffffffffffffffffffff1673ffffffffffffffffffffffffffffffffffffffff166108fc61040e6101dc565b9081150290604051600060405180830381858888f19350505050158015610439573d6000803e3d6000fd5b50600067ffffffffffffffff81111561045557610454610a90565b5b6040519080825280602002602001820160405280156104835781602001602082028036833780820191505090505b50600090805190602001906104999291906105cb565b505050565b6060600080548060200260200160405190810160405280929190818152602001828054801561052257602002820191906000526020600020905b8160009054906101000a900473ffffffffffffffffffffffffffffffffffffffff1673ffffffffffffffffffffffffffffffffffffffff16815260200190600101908083116104d8575b5050505050905090565b600260009054906101000a900473ffffffffffffffffffffffffffffffffffffffff1681565b6000818154811061056257600080fd5b906000526020600020016000915054906101000a900473ffffffffffffffffffffffffffffffffffffffff1681565b600044426000805490506040516020016105ad93929190610ae0565b6040516020818303038152906040528051906020012060001c905090565b828054828255906000526020600020908101928215610644579160200282015b828111156106435782518260006101000a81548173ffffffffffffffffffffffffffffffffffffffff021916908373ffffffffffffffffffffffffffffffffffffffff160217905550916020019190600101906105eb565b5b5090506106519190610655565b5090565b5b8082111561066e576000816000905550600101610656565b5090565b600082825260208201905092915050565b7f706c65617365207061792031206574686572206f6e6c79000000000000000000600082015250565b60006106b9601783610672565b91506106c482610683565b602082019050919050565b600060208201905081810360008301526106e8816106ac565b9050919050565b6000819050919050565b610702816106ef565b82525050565b600060208201905061071d60008301846106f9565b92915050565b600081519050919050565b600082825260208201905092915050565b6000819050602082019050919050565b600073ffffffffffffffffffffffffffffffffffffffff82169050919050565b600061077a8261074f565b9050919050565b61078a8161076f565b82525050565b600061079c8383610781565b60208301905092915050565b6000602082019050919050565b60006107c082610723565b6107ca818561072e565b93506107d58361073f565b8060005b838110156108065781516107ed8882610790565b97506107f8836107a8565b9250506001810190506107d9565b5085935050505092915050565b6000602082019050818103600083015261082d81846107b5565b905092915050565b61083e8161076f565b82525050565b60006020820190506108596000830184610835565b92915050565b600080fd5b61086d816106ef565b811461087857600080fd5b50565b60008135905061088a81610864565b92915050565b6000602082840312156108a6576108a561085f565b5b60006108b48482850161087b565b91505092915050565b7f596f7520617265206e6f7420746865206d616e61676572000000000000000000600082015250565b60006108f3601783610672565b91506108fe826108bd565b602082019050919050565b60006020820190508181036000830152610922816108e6565b9050919050565b7f596f7520617265206e6f74206d616e6167657200000000000000000000000000600082015250565b600061095f601383610672565b915061096a82610929565b602082019050919050565b6000602082019050818103600083015261098e81610952565b9050919050565b7f506c617965727320617265206c657373207468616e2033000000000000000000600082015250565b60006109cb601783610672565b91506109d682610995565b602082019050919050565b600060208201905081810360008301526109fa816109be565b9050919050565b7f4e487b7100000000000000000000000000000000000000000000000000000000600052601260045260246000fd5b6000610a3b826106ef565b9150610a46836106ef565b925082610a5657610a55610a01565b5b828206905092915050565b7f4e487b7100000000000000000000000000000000000000000000000000000000600052603260045260246000fd5b7f4e487b7100000000000000000000000000000000000000000000000000000000600052604160045260246000fd5b6000819050919050565b610ada610ad5826106ef565b610abf565b82525050565b6000610aec8286610ac9565b602082019150610afc8285610ac9565b602082019150610b0c8284610ac9565b60208201915081905094935050505056fea26469706673582212204165be365af2f7bd1a747b22b5a9a3f22c7d846555b0c3c87c9321d8e1c00fce64736f6c634300080b0033",
  "immutableReferences": {},
  "source": "// SPDX-License-Identifier: MIT\r\npragma solidity >=0.5.0 <0.9.0;\r\n\r\ncontract Lottery {\r\n    address payable[] public players;\r\n     address manager;\r\n     address payable public winner;\r\n\r\n     constructor(){\r\n         manager=msg.sender;\r\n     }\r\n     receive() external payable{\r\n         require(msg.value == 1 ether, \"please pay 1 ether only\");\r\n         players.push(payable(msg.sender));\r\n     }\r\n\r\n     function getBalance() public view returns(uint){\r\n         require(manager==msg.sender,\"You are not the manager\");\r\n         return address(this).balance;\r\n     }\r\n     function random() internal view returns(uint){\r\n         return uint(keccak256(abi.encodePacked(block.difficulty,block.timestamp,players.length)));\r\n\r\n     }\r\n     function pickWinner() public {\r\n         require(msg.sender==msg.sender,\"You are not manager\");\r\n         require(players.length>=3,\"Players are less than 3\");\r\n\r\n         uint r = random();\r\n         uint index = r%players.length; // 100%3 = 1 24%3=0 remainder < players.length;\r\n         winner=players[index];\r\n         winner.transfer(getBalance());\r\n         players = new address payable[](0);\r\n\r\n     }\r\n     function allplayers() public view returns(address payable[] memory){\r\n         return players;\r\n     }\r\n\r\n}\r\n//0xfd32ebf88a50cab00166538ea704f37738796c7e",
  "sourcePath": "C:\\Users\\91620\\Desktop\\Lottery Tuttorial\\web3lab\\contracts\\Lottery.sol",
  "compiler": {
    "name": "solc",
    "version": "0.8.11+commit.d7f03943.Emscripten.clang"
  },
  "schemaVersion": "3.4.9",
  "updatedAt": "2022-09-12T16:28:08.786Z",
  "networkType": "ethereum",
  "devdoc": {
    "kind": "dev",
    "methods": {},
    "version": 1
  },
  "userdoc": {
    "kind": "user",
    "methods": {},
    "version": 1
  }
}